:10000000FDC0000011C100000FC100000DC10000C3
:100010000BC1000009C1000007C1000005C10000BC
:1000200003C1000001C10000FFC00000FDC00000CE
:10003000FBC0000057C10000F7C00000F5C0000081
:10004000F3C00000F1C00000EFC00000EDC00000F0
:10005000EBC00000E9C00000E7C00000E5C0000000
:10006000E3C00000E1C00000DFC00000DDC0000010
:10007000DBC00000D9C00000D7C00000D5C0000020
:10008000D3C00000D1C00000CFC00000CDC0000030
:10009000CBC00000C9C00000C7C00000C5C0000040
:1000A000C3C00000C1C00000BFC00000BDC0000050
:1000B000BBC00000B9C00000B7C00000B5C0000060
:1000C000B3C00000B1C00000AFC00000ADC0000070
:1000D000ABC00000A9C00000A7C00000A5C0000080
:1000E000A3C00000A1C000009FC000009DC0000090
:1000F0009BC0000099C0000097C0000095C00000A0
:1001000093C0000091C000008FC000008DC00000AF
:100110008BC0000089C0000087C0000085C00000BF
:1001200083C0000081C000007FC000007DC00000CF
:100130007BC0000079C0000077C0000075C00000DF
:1001400073C0000071C000006FC000006DC00000EF
:100150006BC0000069C0000067C0000065C00000FF
:1001600063C0000061C000005FC000005DC000000F
:100170005BC0000059C0000057C0000055C000001F
:1001800053C0000051C000004FC000004DC000002F
:100190004BC0000049C0000047C0000045C000003F
:1001A00043C0000041C000003FC000003DC000004F
:1001B0003BC0000039C0000037C0000035C000005F
:1001C00033C0000031C000002FC000002DC000006F
:1001D0002BC0000029C0000027C0000025C000007F
:1001E00023C0000021C000001FC000001DC000008F
:1001F0001BC0000019C0000017C0000011241FBE62
:10020000CFEFDFE3DEBFCDBF00E00CBF18BE19BEED
:100210001ABE1BBE20E2A0E0B0E201C01D92A531D3
:10022000B207E1F724D02EC1EBCEFC012081207F64
:10023000622B60830895FC012181287F622B6183FA
:100240000895FC012181607F622B6183089584EF12
:1002500091E0E0E0F9E080AF91AF8AE090E031E03A
:100260003487248520FFFDCF0197D1F7089583E0DF
:100270008093B000E0E4F6E08089877C8861808B21
:1002800025E040E460E874E080E090E25FD0E0EADE
:10029000F0E0828181608283789481E080936006BF
:1002A00063E080E099E0C7DF60E180E099E0C9DFCA
:1002B00061E080E099E0B9DFE0E0F9E088EE93E00A
:1002C00086A397A384EF91E080AF91AF10920B20AB
:1002D00010920C2010920D2010920E20B8DF80E0BA
:1002E00090E008951F920F920FB60F92112408B656
:1002F0000F9218BE09B60F9219BE0BB60F921BBE15
:100300002F933F934F935F936F937F938F939F931D
:10031000AF93BF93EF93FF9380E090E2A3D0FF9160
:10032000EF91BF91AF919F918F917F916F915F916D
:100330004F913F912F910F900BBE0F9009BE0F90E0
:1003400008BE0F900FBE0F901F901895FC016083A0
:1003500071834863DB0111964C93A081B18115969E
:100360002C930190F081E02D81E084830895FC01BD
:10037000A081B18114968C91149782FF03C094E000
:10038000948B02C093E0948B886014968C93138AAC
:100390000895FC01648B138A0895CF93DF93EC01D9
:1003A0008A89843098F4E0E4F6E080811082A881A4
:1003B000B98117969C912A89DE01A20FB11D1B9667
:1003C0009C939A899F5F9A8B808307C0E881F9810B
:1003D00083E0838362E0CE01DCDF98898A89891714
:1003E00028F4E881F98182E0838307C0E881F981FC
:1003F00087E0838361E0CE01CCDFDF91CF91089568
:10040000CF93DF93FC0197852089A081B181149659
:100410008C91149784FF07C083E013968C9385E03A
:10042000848B138A1CC08189891758F48189EF0154
:10043000C80FD11D8B8117968C9381898F5F818B1B
:100440000EC08289821728F48281816016968C936F
:1004500006C083E013968C9361E0CF019ADFDF91B1
:10046000CF910895DC01ED91FC912481322F3C70F5
:1004700009F07DCF26FF01C0C3CF22230CF48DCF1E
:0804800066E087CFF894FFCF7E
:00000001FF
