:10000000FDC000001FC100001DC100001BC1000099
:1000100019C1000017C1000015C1000013C1000084
:1000200011C100000FC100000DC100000BC1000094
:100030009AC1000064C1000005C1000003C10000B6
:1000400001C10000FFC00000FDC00000FBC00000B7
:10005000F9C00000F7C00000F5C00000F3C00000C8
:10006000F1C00000EFC00000EDC00000EBC00000D8
:10007000E9C00000E7C00000E5C00000E3C00000E8
:10008000E1C00000DFC00000DDC00000DBC00000F8
:10009000D9C00000D7C00000D5C00000D3C0000008
:1000A000D1C00000CFC00000CDC00000CBC0000018
:1000B000C9C00000C7C00000C5C00000C3C0000028
:1000C000C1C00000BFC00000BDC00000BBC0000038
:1000D000B9C00000B7C00000B5C00000B3C0000048
:1000E000B1C00000AFC00000ADC00000ABC0000058
:1000F000A9C00000A7C00000A5C00000A3C0000068
:10010000A1C000009FC000009DC000009BC0000077
:1001100099C0000097C0000095C0000093C0000087
:1001200091C000008FC000008DC000008BC0000097
:1001300089C0000087C0000085C0000083C00000A7
:1001400081C000007FC000007DC000007BC00000B7
:1001500079C0000077C0000075C0000073C00000C7
:1001600071C000006FC000006DC000006BC00000D7
:1001700069C0000067C0000065C0000063C00000E7
:1001800061C000005FC000005DC000005BC00000F7
:1001900059C0000057C0000055C0000053C0000007
:1001A00051C000004FC000004DC000004BC0000017
:1001B00049C0000047C0000045C0000043C0000027
:1001C00041C000003FC000003DC000003BC0000037
:1001D00039C0000037C0000035C0000033C0000047
:1001E00031C000002FC000002DC000002BC0000057
:1001F00029C0000027C0000025C0000011241FBE38
:10020000CFEFDFE3DEBFCDBF00E00CBF18BE19BEED
:100210001ABE1BBE10E2A0E0B0E2EAE3F7E000E0A5
:100220000BBF02C007900D92A830B107D9F71BBED3
:1002300020E2A8E0B0E201C01D92A633B207E1F7C8
:100240000BD079C2DDCEE0913120F0E0E35EFF4DCE
:1002500084818095848708950F938FEF8093B000F9
:100260008093000625E040E460E874E088E090E2D6
:10027000AED043E251E060E874E08DE190E280D1DD
:1002800040E468E28DE190E286D1E0EAF0E082812C
:1002900081608283789410928006E8E8F6E080819D
:1002A0008130E9F788E28093002004E020E040E01C
:1002B00050E268E288E090E29BD0EBE1F0E28081DE
:1002C0008111FDCF80E090E0A4E0B6E0FC01E85FA2
:1002D000FF4D23852C932FE33DE043E02150304038
:1002E0004040E1F700C0000001968430910571F7AD
:1002F00087E08093040680E090E00F9108951F92BC
:100300000F920FB60F92112408B60F9218BE09B6BD
:100310000F9219BE0BB60F921BBE2F933F934F93B4
:100320005F936F937F938F939F93AF93BF93EF935D
:10033000FF9388E090E214D1FF91EF91BF91AF91CC
:100340009F918F917F916F915F914F913F912F91ED
:100350000F900BBE0F9009BE0F9008BE0F900FBEFE
:100360000F901F9018951F920F920FB60F921124A5
:1003700008B60F9218BE09B60F9219BE0BB60F92AF
:100380001BBE2F933F934F935F936F937F938F93F6
:100390009F93AF93BF93EF93FF938DE190E2A3D12F
:1003A000FF91EF91BF91AF919F918F917F916F914D
:1003B0005F914F913F912F910F900BBE0F9009BE0F
:1003C0000F9008BE0F900FBE0F901F901895FC0164
:1003D000608371834863DB0111964C93A081B181E6
:1003E00015962C930190F081E02D81E0848308958F
:1003F0000F93CF93DF93FC01293098F5053098F5E2
:100400008389811132C081E0838B148A660F6283F5
:10041000222369F0A42FB52F40E050E08D91EF0129
:10042000C40FD51F8B834F5F5F4F4217B8F32787E9
:10043000008B118A128A8785882341F082818E7F02
:100440000190F081E02D868381E012C080898823AD
:1004500071F0828181600190F081E02D868381E0DE
:1004600007C080E005C080E003C080E001C081E0FB
:10047000DF91CF910F910895FC01A081B181149675
:100480008C91149782FF03C094E0948B02C093E098
:10049000948B886014968C93138A0895FC01648B66
:1004A000138A0895CF93DF93EC018A89843060F436
:1004B000E881F98187819A89FE01E90FF11D83871F
:1004C0008A898F5F8A8B07C0E881F98183E0838303
:1004D00062E0CE01E3DF98898A89891728F4E881F0
:1004E000F98182E0838307C0E881F98187E0838313
:1004F00061E0CE01D3DFDF91CF910895CF93DF93F9
:10050000FC0197852089A081B18114968C91149764
:1005100084FF07C083E013968C9385E0848B138A55
:100520001CC08189891758F48189EF01C80FD11D3A
:100530008B8117968C9381898F5F818B0EC0828906
:10054000821728F48281816016968C9306C083E01E
:1005500013968C9361E0CF01A1DFDF91CF910895D5
:10056000DC01ED91FC912481322F3C7009F084CFA5
:1005700026FF01C0C3CF22230CF494CF66E08ECFB8
:10058000FC016083718342835383148A158A168A1F
:10059000178A108E0895DC01ED91FC911197486344
:1005A0004087ED91FC91660F63870895FC01678B8E
:1005B000168A0895FC018589882369F0A081B1819C
:1005C0001A968C911A9784FF06C082E019968C9334
:1005D00061E0CF01EBCF8589883098F48589DF0110
:1005E000A80FB11D1C968C91A081B1811C968C9393
:1005F00085898F5F858B0190F081E02D83E0818775
:100600000895A081B18182E019968C9362E0CF01B8
:10061000CDCFCF93DF93EC01E881F98180858460B1
:1006200080878C898830F8F4E881F98184859C89F9
:10063000FE01E90FF11D8483EA81FB8119958C8904
:100640008F5F8C8B888D882349F0E881F98182E067
:10065000818766E0CE01AADF188E0CC0E881F9819F
:1006600083E0818707C0E881F98186E0818762E0C5
:10067000CE019CDFDF91CF910895DC01ED91FC91DB
:10068000228521FF01C096CFC4CFDC01ED91FC9102
:10069000119720852B7F2087ED91FC912285206486
:1006A000228761E083CFCF93DF93EC01888D88238D
:1006B00049F0E881F98182E0818766E0CE0176DF4A
:1006C000188E0EC081E08E8B1F8AE881F9818085AB
:1006D0008B7F80871C8A1D8AE881F98183E081876E
:1006E000DF91CF910895FC01A081B1811A968C9180
:1006F00082FF06C0148A158A84E0878B168A0895C3
:1007000083FF06C0148A158A83E0878B168A0895B2
:10071000282F2074982F9174913411F4CF01C3CFF6
:10072000222311F0CF01B1CF882314F4CF01A5CF3C
:0A07300065E0CF013BCFF894FFCF46
:08073A0055AAF00FB00BDEAD73
:00000001FF
